:20000200EA4C6510EA4C75100400D25E83187F00803F9E00FF0100011F0000009318931857
:02002200DC0FF1
:20002600834C49D400002E00B9AE0048E6AED002E6AFB9AE00E6AED002E6AFCACA95016802
:200046009500A001B9AE0085B288B9AE0085B120760018A5AE690285AE9002E6AF4CB000DF
:2000660084434C49D426006F00B9AE004898F0C586B520D2D0A5AF20CED2A5AE20CED22075
:20008600AFD0A900B9AE0085128514C8B9AE008513851520E200A51320CED2A51220CED249
:2000A60020AFD0A5B520CED220AFD0A90120CED2BAE88A20CED220AFD020DCD1A6B5A00025
:2000C6006086B5A5B18514A5B2851520D2D0A93A20C1D220AFD020E200A6B56020070120A3
:2000E6000701200701A000200701B9140010F8C8B9140020C1D2B9140010F420AFD0A000D5
:2001060060A514D002C615C614600A85A5B50099A600E8C8C4A5D0F5A00060874558454327
:200126005554C566002D01B50085B1B50185B2E8E84CB000864252414E43C82101450118DF
:20014600B9AE0065AE48C8B9AE0065AF85AF6885AE4C4A0087304252414E43C83A016601A8
:20016600E8E8B5FE15FFF0D718A5AE690285AE9002E6AF4C480086284C4F4F50A95A0187E4
:200186000186B5BAFE0101D003FE020118BD0301FD0101BD0401FD0201A6B50A90A168688F
:2001A60068684C6E0187282B4C4F4F50A97C01B701E8E886B5B5FF4848B5FEBAE8E8187D9B
:2001C60001019D0101687D02019D02016810BD18BD0101FD0301BD0201FD04014C9F0184B1
:2001E60028444FA9AB01EE01B50348B50248B50148B50048E8E8E8E84C480081C9E5017B21
:20020600048544494749D40102110238B502E9303018C90A300738E907C90A300DD50010D1
:20022600099502A90148984C43009848E8E84C4300862846494E44A907024202A902201020
:200246000186B5A000B9A60059A800293FD030C8B9A60059A8000AD02490F4A6B5CACACA91
:20026600CA1898690565A69502A0009865A795039401B9A6009500A901484C4100B006C88C
:20028600B9A60010FAC8B9A600AAC8B9A60085A786A605A6D0ADA6B5A900484C41008745D2
:2002A6004E434C4F53C53702B002A9022010018A38E908AA9403940188C8B9A800C5A6F098
:2002C600F89404B9A800D00E9402940098D504D002F6024C48009402C8C5A6D0E694004CF1
:2002E600480084454D49D4A4021014834B45D9E8022B14893F5445524D494E41CCF10235D2
:20030600148243D2F902401485434D4F56C507031803A903201001C4A6D007C6A710034C4F
:200326004800B9AA0099A800C8D0ECE6ABE6A94C1D038255AA0E033F03B50285A69402B5BA
:200346000385A79403A0101602360336003601901318A5A675029502A5A775039503A9004A
:200366007500950088D0E04C48008255AF38037703B504B40294040A9502B505B4039405B4
:200386002A9503A91085A63604360538B504F500A8B505F50190049404950536023603C601
:2003A600A6D0E44CFC0183414EC47003B403B500350248B5013503E8E84C4300824FD2ACC4
:2003C60003C903B500150248B5011503E8E84C430083584FD2C203DF03B500550248B5015A
:2003E6005503E8E84C4300835350C0D703F5038A48A9004C4100835350A1ED030404A0061B
:20040600B9B300AA4C4800835250A1FC03150486B5A008B9B300AA9AA6B54C4800823BD33C
:200426000D042A046885AE6885AF4C4800854C454156C523043D0486B5BABD01019D03017D
:20044600BD02019D0401A6B54C4800823ED233045804B50148B50048E8E84C48008252BE2F
:2004660051046A04CACA6895006895014C480081D263047B0486B5BABD010148BD0201A6F5
:20048600B54C41008230BD75049104B50194011500D001C894004C48008230BC8A04A604D0
:2004A6001601982A940195004C480081AB9F04B70418B50075029502B50175039503E8E8A4
:2004C6004C48008244ABB104D00418B50275069506B50375079507B50075049504B50175E1
:2004E6000595054CFA01854D494E55D3C904F6043898F500950098F50195014C48008644DC
:200506004D494E55D3EC040F053898F502950298F50395034CF704844F5645D20405260584
:20052600B50248B5034C41008444524FD01D05FC0184535741D02E054005B50248B5009519
:2005460002B503B40194034C4300834455D037055805B50048B5014C4100822BA150056731
:200566000518A10075028100F600D002F601A100750381004CFA0181544F47474CC56005F7
:200586008805A102550081024CFA0181C07D059705A10048F600D002F601A1004C4300824D
:2005A60043C09105AC05A100950094014C480081A1A505BB05B5028100F600D002F601B554
:2005C6000381004CFA018243A1B505D305B50281004CFA01C1BACC05F2055E091A0974078B
:2005E60095056707B905540EDF092E0AA5AF48A5AE4820C70018A5B1690285AE9865B2854F
:20060600AF4C4800C1BBDA05F2058609BB092804F309D109280488434F4E5354414ED40A42
:2006260006F205540EF309F5072E0AA002B1B148C8B1B14C4100885641524941424CC51CB8
:2006460006F20527062E0A18A5B16902489865B24C410084555345D23C06F20527062E0AF4
:20066600A00218B1B165B348A90065B44C410081B059063106000081B1750631060100817C
:20068600B27D063106020081B38506310603008242CC8D063106200083432FCC95063106E0
:2006A60040008546495253D49E063106603B854C494D49D4A8063106803F85422F4255C676
:2006C600B4063106800085422F5343D2C00631060800872B4F52494749CECC06F2052C0051
:2006E6000002B5042804835449C2D80666060A8557494454C8EC0666060C875741524E49E0
:200706004EC7F50666060E8546454E43C500076606108244D00D0766061288564F432D4C4F
:20072600494ECB180766061483424CCB20076606168249CE2E07660618834F55D43707663C
:20074600061A835343D23F0766061C864F46465345D4480766061E87434F4E544558D45197
:20076600076606208743555252454ED45D076606228553544154C56A0766062484424153E3
:20078600C57707660626834450CC820766062883464CC48C0766062A834353D0950766068B
:2007A6002C8252A39E0766062E83484CC4A7076606308231ABAF07F2058106B50428048233
:2007C60032ABB807F2058906B504280484484552C5C507F2051D079505280485414C4C4F8A
:2007E600D4D207F2051D076505280481ACE107F205D907B9058906E90728048243ACF107D7
:20080600F205D907D1058106E907280481AD0108F205F404B504280481BD1208F20516080A
:200826008F0428048255BC1E08F2051608A404280481BC2A083D0838B502F500B503F5010B
:200846009403500249801001C894024CFC0181BE3708F2053E053B08280483524FD45408AD
:20086600F20556043E0568043E0528048553504143C56008F2059A06EF022804842D44552C
:20088600D07208F205560564010400560528048854524156455253C58208F2053E05240565
:2008A600B5046D007F2405AA053B086401F1FF3E0535052804864C41544553D49508F2050D
:2008C6007407950595052804834C46C1BB08F2056D000416082804834346C1CE08F20589C9
:2008E6000616082804834E46C1DD08F2056D000516082C00FFFFA0082804835046C1EB0893
:20090600F2058106A0086D0005B504280484214353D00009F205F303A407B9052804863FF9
:200926004552524FD21309F2053E0564010800EB0D4301040035052804853F434F4DD024A7
:2009460009F2057F0795058F046D00112D092804853F455845C33F09F2057F0795056D00C9
:20096600122D092804863F50414952D35609F20516086D00132D092804843F4353D06B0946
:20098600F205F303A407950516086D00142D092804883F4C4F4144494EC77F09F20534071F
:2009A60095058F046D00162D09280487434F4D50494CC59709F205470968045605CA07563A
:2009C600049505F5072804C1DBB109F20579067F07B905280481DDCD09F2056D00C07F0731
:2009E600B905280486534D554447C5DB09F205C4086D002086052804834845D8EA09F2057F
:200A06006D00108907B905280487444543494D41CCFE09F2056D000A8907B9052804872845
:200A26003B434F4445A90F0AF2056804C4080609E308B9052804C53B434F44C5240AF205C5
:200A46008609BB092E0AD109F3092804873C4255494C44D33C0AF20579062706280485441F
:200A66004F4553BE520AF2056804C4080609B9052E0AA5AF48A5AE48A002B9B10085AEC8FD
:200A8600B9B10085AF18A5B1690448A5B269004C410085434F554ED4640AF2055605BD0730
:200AA6003E05AA05280484545950C5980AF2058908640118002405B5043E05EC010502AA62
:200AC60005EF028501F8FF4301040035052804892D545241494C494EC7AC0AF205560579DE
:200AE60006EC0124052405B50481061608AA059A061608640108003B04430106008106164D
:200B0600088501E0FF280484282E22A9D50AF2057904A00A5605BD076804B5045604B30A39
:200B26002804C22EA20D0BF2056D00227F07950564011400BB09140B8E0CD907AA05BD07EA
:200B4600E90743010A008E0CD907A00AB30A2804864558504543D4280BF2052405B5042445
:200B660005EC01F70256056D000EE2069505220864011F0035056D0008240505022208561F
:200B860005680489061608B504560416084301270056056D000D220864010E003B043505AA
:200BA6009A0679064301040056050502D10579060502BD07B905EF028501A9FF3505280403
:200BC6008551554552D9560BF205F20695056D00505F0B79063C07B9052804C180C60BF2B3
:200BE600053407950564012A0081063407650579063C07B905340795057906D406750335FF
:200C0600058F04640108005E0968043505430106006804350528048446494CCCE10BF20592
:200C26003E0556042405D1055605BD07680481061608160328048545524153C51D0CF20508
:200C46007906240C280486424C414E4BD33C0CF2059A06240C280484484F4CC44C0CF2053D
:200C66002C00FFFFB5076505B5079505D1052804835041C45D0CF205D9076D0044B504281C
:200C86000484574F52C4760CF2053407950564010C0034079505F41243010600F206950594
:200CA6003C079505B5043E05AE02D9076D0022550C3C0765052405160856047904D907D159
:200CC60005B504D907BD076804160328048555505045D2870CF2052405B5043E05EC0105C9
:200CE60002AA056D005F58086401090005026D002086058501EAFF280488284E554D4245C2
:200D060052A9D30CF205BD0756055604AA05890795050F0264012C003E05890795053D035B
:200D260035056608890795053D03CE0492079505BD0764010800810692076505680443012B
:200D4600C6FF68042804864E554D4245D2FF0CF2057906790666085605BD07AA056D002D8B
:200D6600220856055604B5042C00FFFF9207B9050A0D5605AA059A061608640115005605A0
:200D8600AA056D002E160879062D0979064301DDFF35056804640104000D052804852D464C
:200DA600494EC44C0DF2059A068E0CD907A00ADB0CD907670795059505400256058F0464C1
:200DC600010A003505D907C40840022804872841424F5254A9A30DF2053B102804854552A4
:200DE600524FD2D30DF2050A079505A40464010400DD0DD907A00AB30A140B0420203F20F4
:200E06008B130204350535053C079505340795050C102804834944AEE30DF2057C0C6D0020
:200E2600206D005F240C56050609D408240516087C0C3E0516037C0CA00A6D001FB203B3F9
:200E46000A7A082804864352454154C51A0EF205F206D9076D00A0B5042F0889062D09ABB6
:200E66000D64010F003505F108200E6D00048B137A08D9075605AA05FD069505F110BD07AD
:200E8600E9071D07AA056D00FD2208E90756056D00A08605D907810616086D00808605C451
:200EA60008F50774079505B905D907CA07F5072804C95B434F4D50494C45DD4B0EF205AB77
:200EC6000D8F0479062D093505E308F5072804C74C4954455241CCB70EF2057F07950564D6
:200EE600010800BB092C00F5072804C8444C4954455241CCD50EF2057F07950564010800CB
:200F06003E05DF0EDF0E2804863F53544143CBF10EF2056D009EF3032F0881062D09F303E6
:200F26006D00202F086D00072D09280489494E544552505245D40E0FF205AB0D64011E00FC
:200F46007F0795053B0864010A00E308F50743010600E3082B01170F43011C00D907550DA9
:200F660092079505BD0764010800FC0E430106003505DF0E170F4301C2FF89494D4D45446C
:200F8600494154C5320FF205C4086D0040860528048A564F434142554C4152D9800FF205B8
:200FA6005C0A2C0081A0F50774079505E308F507D9072B079505F5072B07B9056C0ACA07A1
:200FC6006707B9052804C5464F5254C8970F780AC40F81A0831800008B444546494E4954A6
:200FE600494F4ED3CC0FF205670795057407B9052804C1A8DE0FF2056D00298E0C280484C6
:20100600515549D4F80FF20579063407B905D10913040C03CE0B3E0F7F0795058F04640153
:201026000700140B024F4B4301E7FF28048541424F52D40510F2050204190A87120C031424
:201046000B0E6669672D464F5254482020312E30D40FEC0F0C1084434F4CC433106510AD37
:201066000C028DDA0FAD0D028DDB0FA015D002A00FAD100285B3AD110285B4B90C0299B37A
:20108600008810F7A91085AFA93D85AED8A96C85B04C150484532D3EC45C10F2055605A4C6
:2010A60004F4042804822BAD9A10F205A40464010400F404280483442BADAB10F205A404D9
:2010C600640104000D052804834142D3BC10F2055605B010280484444142D3CE10F2055637
:2010E60005C2102804834D49CEDC10F205240524055808640104003E0535052804834D4148
:20110600D8EB10F205240524053B08640104003E0535052804824DAA0311F2052405240582
:20112600DD035604D4103E05D4103D036804C2102804824DAF1B11F205240556045604E359
:20114600107904D410750368047904DD03B0103E056804B0103E05280481AA3811F2053D91
:201166000335052804842F4D4FC45F11F2055604A11068043D11280481AF6B11F20572116F
:201186003E0535052804834D4FC47E11F205721135052804852A2F4D4FC48C11F205560422
:2011A600201168043D112804822AAF9A11F205A2113E0535052804854D2F4D4FC4AE11F2A7
:2011C60005560479067904750368043E055604750368042804835553C5BD114D06603B84ED
:2011E600505245D6DB114D06603B842B4255C6E511F2052C008400B5045605BC0622086445
:201206000106003505B0065605EC11950516082804865550444154C5F011F205EC1195053D
:2012260095052C000080C703EC119505B905280485464C5553C81712F205BC06B0061608DA
:20124600C8066D0004B5048211BD077906EC012C00FF7FAC1235058501F6FF28048D454D65
:201266005054592D425546464552D33612F205B006BC0624051608440C2804834452B0630B
:2012860012F20579065A07B9052804834452B18112F2052C0020035A07B90528048642556A
:2012A600464645D29112F205E111950556055604F7116401FCFFE111B90579049505A404D3
:2012C600640114007904CA07790495052C00FF7FB2037906A8147904B9057904EC11B9051D
:2012E6006804CA07280485424C4F43CBA312F2055A079505B5045604EC11950556059505C9
:20130600790416085605B50464013400F7118F046401140035057904AC1256057904810697
:20132600A8148906160856059505790416085605B5048F046401D6FF5605EC11B90568044B
:201346003505CA07280486284C494E45A9EC12F2055604A406C806A2116804D4066311B5E8
:2013660004F412B504A4062804852E4C494EC54C13F2055513E10AB30A2804874D45535322
:201386004147C56F13F2050A07950564011B008908640111006D00045A079505D406821176
:2013A6001608771343010D00140B064D53472023207C172804844C4F41C48113F205340716
:2013C600950556043C079505560479063C07B905D40663113407B9053E0F68043C07B9055B
:2013E60068043407B9052804C32D2DBEBB13F205A20979063C07B905D406340795052405B3
:20140600921116083407650528049838A01A71B391B3C8A90071B391B3B50086B520C1D2C6
:20142600A6B54CFC0186B520DCD1A6B54CF603AD00C0CD01C029014CF60386B520F1D0A62E
:20144600B54C4800852D444953C3EE135414B5008D0CC68D0DC6B5028D0AC68D0BC6B504E0
:201466008DCDC48DCEC486B5ADDAC4D00620FEE14C7C142062E220EFE3A6B5ADE1C4950456
:201486004CFA01842D4243C44A14F20579066D000A75036D00106311C703280483522FD780
:2014A6008914F2058F042C00DAC4D1053E057906B90579062405580824052C003F065808DD
:2014C600C7036D00062D0979062C0020037503BD073E0579066D0012750390143E05BD0725
:2014E600901452146D00082D0928042804C1A7A214F205AB0D8F0479062D093505DF0E2875
:201506000486464F524745D4F314F205F714F1085605150795052F086D00152D0956042B6D
:20152600079505790424052F0864011200D40FEC0F950556052B07B9054301E8FF56056DFA
:20154600000416080609D4089505560579042F086401F2FF240589061608B90595058908BA
:201566008F046401D9FF68041D07B905280484424143CB0715F205D9071608F5072804C508
:2015860042454749CE7415F2054709D90781062804C5454E4449C68515F20547098906746E
:2015A60009D907240516083E05B9052804C4544845CE9715F2059F152804C244CFB315F243
:2015C60005BB09EC01D90791062804C44C4F4FD0C015F20591067409BB0985017B15280448
:2015E600C52B4C4F4FD0D115F20591067409BB09B5017B152804C5554E5449CCE615F20551
:2016060081067409BB0964017B152804C3454EC4FC15F20504162804C541474149CE1216A6
:20162600F20581067409BB0943017B152804C65245504541D41E16F205560456042616685B
:20164600046804890616089F152804C249C63416F205BB096401D9077906F5078906280436
:20166600C4454C53C55116F20589067409BB094301D9077906F5073E0589069F15890628ED
:2016860004C55748494CC56616F2055616CA072804865350414345D38716F20579060911B4
:2016A600890864010C007906EC017A088501FCFF2804823CA39716F2057C0CB507B9052858
:2016C600048223BEB816F20535053505B50795057C0C24051608280484534947CEC716F20F
:2016E600056608A404640107006D002D640C280481A3DE16F20589079505C51166086D003D
:201706000924053B08640107006D0007B5046D0030B504640C28048223D3F616F205FA1638
:2017260024052405C7038F046401F4FF280483442ED21D17F20556043E052405E310BD16F2
:201746002217E516CC16680424051608A016B30A28048244AE3417F20579063A177A0828EB
:2017660004822ED25817F2055604A11068043A17280481AE6717F205A1105D17280481BF4E
:201786007817F20595057C172804844C4953D48417F205190A0C0356054E07B905140B06CD
:2017A6005343522023207C176D00107906EC010C03050291066C177A0805024E079505773D
:2017C600138501ECFF0C03280485494E4445D89017F2050C03BD073E05EC010C030502917F
:2017E600066C177A087906050277130503640104003B048501E6FF6D000CEF02280485543E
:20180600524941C4CF17F205910682119106631191062405B5043E05EC010C0305029717A3
:201826008501F8FF0C036D000F8B130C036D000CEF02280485564C4953D40418F2056D0040
:20184600804507B90567079505950545079505A406580864010A000C0379064507B9055609
:2018660005200E7A087A080609D408950556058F040503C7036401D4FF35052804834D4F29
:0D188600CE3A188B1886B500A6B54C480068
:00000001FF
